{
  "_format": "hh-sol-artifact-1",
  "contractName": "Sale",
  "sourceName": "contracts/Sale.sol",
  "abi": [
    {
      "inputs": [
        {
          "internalType": "address",
          "name": "_owner",
          "type": "address"
        },
        {
          "internalType": "address",
          "name": "_fundsReceiver",
          "type": "address"
        },
        {
          "internalType": "contract IPAM",
          "name": "_token",
          "type": "address"
        },
        {
          "internalType": "address",
          "name": "_WBNB",
          "type": "address"
        },
        {
          "internalType": "address",
          "name": "_BUSD",
          "type": "address"
        },
        {
          "internalType": "address",
          "name": "_pancakeRoute",
          "type": "address"
        }
      ],
      "stateMutability": "nonpayable",
      "type": "constructor"
    },
    {
      "inputs": [
        {
          "internalType": "uint256",
          "name": "prod1",
          "type": "uint256"
        },
        {
          "internalType": "uint256",
          "name": "denominator",
          "type": "uint256"
        }
      ],
      "name": "PRBMath__MulDivOverflow",
      "type": "error"
    },
    {
      "anonymous": false,
      "inputs": [
        {
          "indexed": true,
          "internalType": "address",
          "name": "previousOwner",
          "type": "address"
        },
        {
          "indexed": true,
          "internalType": "address",
          "name": "newOwner",
          "type": "address"
        }
      ],
      "name": "OwnershipTransferred",
      "type": "event"
    },
    {
      "anonymous": false,
      "inputs": [
        {
          "indexed": true,
          "internalType": "address",
          "name": "buyer",
          "type": "address"
        },
        {
          "indexed": true,
          "internalType": "address",
          "name": "refferal",
          "type": "address"
        },
        {
          "indexed": false,
          "internalType": "uint256",
          "name": "usdt",
          "type": "uint256"
        },
        {
          "indexed": false,
          "internalType": "uint256",
          "name": "token",
          "type": "uint256"
        },
        {
          "indexed": false,
          "internalType": "uint256",
          "name": "boughtAt",
          "type": "uint256"
        }
      ],
      "name": "PrivateSaleTokens",
      "type": "event"
    },
    {
      "anonymous": false,
      "inputs": [
        {
          "indexed": true,
          "internalType": "address",
          "name": "buyer",
          "type": "address"
        },
        {
          "indexed": true,
          "internalType": "address",
          "name": "refferal",
          "type": "address"
        },
        {
          "indexed": false,
          "internalType": "uint256",
          "name": "usdt",
          "type": "uint256"
        },
        {
          "indexed": false,
          "internalType": "uint256",
          "name": "token",
          "type": "uint256"
        },
        {
          "indexed": false,
          "internalType": "uint256",
          "name": "boughtAt",
          "type": "uint256"
        }
      ],
      "name": "PublicSaleTokens",
      "type": "event"
    },
    {
      "anonymous": false,
      "inputs": [
        {
          "indexed": true,
          "internalType": "address",
          "name": "buyer",
          "type": "address"
        },
        {
          "indexed": true,
          "internalType": "address",
          "name": "refferal",
          "type": "address"
        },
        {
          "indexed": false,
          "internalType": "uint256",
          "name": "usdt",
          "type": "uint256"
        },
        {
          "indexed": false,
          "internalType": "uint256",
          "name": "boughtAt",
          "type": "uint256"
        }
      ],
      "name": "PublicSaleTokensWithRefferal",
      "type": "event"
    },
    {
      "anonymous": false,
      "inputs": [
        {
          "indexed": false,
          "internalType": "uint256",
          "name": "burnedAmount",
          "type": "uint256"
        },
        {
          "indexed": false,
          "internalType": "uint256",
          "name": "finalizedSaleAt",
          "type": "uint256"
        }
      ],
      "name": "SaleFinalized",
      "type": "event"
    },
    {
      "anonymous": false,
      "inputs": [
        {
          "indexed": false,
          "internalType": "uint256",
          "name": "privateSaleStartTime",
          "type": "uint256"
        },
        {
          "indexed": false,
          "internalType": "uint256",
          "name": "privateSaleEndTime",
          "type": "uint256"
        },
        {
          "indexed": false,
          "internalType": "uint256",
          "name": "publicSaleStartTime",
          "type": "uint256"
        },
        {
          "indexed": false,
          "internalType": "uint256",
          "name": "withdrawStartTime",
          "type": "uint256"
        }
      ],
      "name": "SetSaleTimes",
      "type": "event"
    },
    {
      "anonymous": false,
      "inputs": [
        {
          "indexed": true,
          "internalType": "address",
          "name": "acc",
          "type": "address"
        },
        {
          "indexed": false,
          "internalType": "uint256",
          "name": "amount",
          "type": "uint256"
        },
        {
          "indexed": false,
          "internalType": "uint256",
          "name": "withdrawedAt",
          "type": "uint256"
        }
      ],
      "name": "WithdrawBoughtTokens",
      "type": "event"
    },
    {
      "inputs": [],
      "name": "BUSD",
      "outputs": [
        {
          "internalType": "address",
          "name": "",
          "type": "address"
        }
      ],
      "stateMutability": "view",
      "type": "function"
    },
    {
      "inputs": [],
      "name": "WBNB",
      "outputs": [
        {
          "internalType": "address",
          "name": "",
          "type": "address"
        }
      ],
      "stateMutability": "view",
      "type": "function"
    },
    {
      "inputs": [
        {
          "internalType": "address",
          "name": "",
          "type": "address"
        }
      ],
      "name": "boughtCashes",
      "outputs": [
        {
          "internalType": "uint256",
          "name": "",
          "type": "uint256"
        }
      ],
      "stateMutability": "view",
      "type": "function"
    },
    {
      "inputs": [
        {
          "internalType": "address",
          "name": "_refferal",
          "type": "address"
        }
      ],
      "name": "buyTokens",
      "outputs": [],
      "stateMutability": "payable",
      "type": "function"
    },
    {
      "inputs": [],
      "name": "finalizeSale",
      "outputs": [],
      "stateMutability": "nonpayable",
      "type": "function"
    },
    {
      "inputs": [],
      "name": "fundsReceiver",
      "outputs": [
        {
          "internalType": "address",
          "name": "",
          "type": "address"
        }
      ],
      "stateMutability": "view",
      "type": "function"
    },
    {
      "inputs": [],
      "name": "getCurrentRate",
      "outputs": [
        {
          "internalType": "uint256",
          "name": "",
          "type": "uint256"
        }
      ],
      "stateMutability": "view",
      "type": "function"
    },
    {
      "inputs": [
        {
          "internalType": "address",
          "name": "_acc",
          "type": "address"
        }
      ],
      "name": "getRemainingTokenAmount",
      "outputs": [
        {
          "internalType": "uint256",
          "name": "remainToken",
          "type": "uint256"
        }
      ],
      "stateMutability": "view",
      "type": "function"
    },
    {
      "inputs": [
        {
          "internalType": "address",
          "name": "_acc",
          "type": "address"
        }
      ],
      "name": "getTokenDistributtionOf",
      "outputs": [
        {
          "components": [
            {
              "internalType": "uint256",
              "name": "amount",
              "type": "uint256"
            },
            {
              "internalType": "uint256",
              "name": "withdrawTime",
              "type": "uint256"
            },
            {
              "internalType": "bool",
              "name": "isWithdrawed",
              "type": "bool"
            }
          ],
          "internalType": "struct Sale.DistributeInfo[]",
          "name": "distributeInfo",
          "type": "tuple[]"
        }
      ],
      "stateMutability": "view",
      "type": "function"
    },
    {
      "inputs": [
        {
          "internalType": "uint256",
          "name": "amount",
          "type": "uint256"
        }
      ],
      "name": "getValueBNB",
      "outputs": [
        {
          "internalType": "uint256",
          "name": "",
          "type": "uint256"
        }
      ],
      "stateMutability": "view",
      "type": "function"
    },
    {
      "inputs": [
        {
          "internalType": "address",
          "name": "_acc",
          "type": "address"
        }
      ],
      "name": "getWithdrawableAmount",
      "outputs": [
        {
          "internalType": "uint256",
          "name": "amount",
          "type": "uint256"
        }
      ],
      "stateMutability": "view",
      "type": "function"
    },
    {
      "inputs": [],
      "name": "isSaleFinalized",
      "outputs": [
        {
          "internalType": "bool",
          "name": "",
          "type": "bool"
        }
      ],
      "stateMutability": "view",
      "type": "function"
    },
    {
      "inputs": [],
      "name": "owner",
      "outputs": [
        {
          "internalType": "address",
          "name": "",
          "type": "address"
        }
      ],
      "stateMutability": "view",
      "type": "function"
    },
    {
      "inputs": [],
      "name": "pancakeRoute",
      "outputs": [
        {
          "internalType": "address",
          "name": "",
          "type": "address"
        }
      ],
      "stateMutability": "view",
      "type": "function"
    },
    {
      "inputs": [],
      "name": "privateSaleEndTime",
      "outputs": [
        {
          "internalType": "uint256",
          "name": "",
          "type": "uint256"
        }
      ],
      "stateMutability": "view",
      "type": "function"
    },
    {
      "inputs": [],
      "name": "privateSaleStartTime",
      "outputs": [
        {
          "internalType": "uint256",
          "name": "",
          "type": "uint256"
        }
      ],
      "stateMutability": "view",
      "type": "function"
    },
    {
      "inputs": [],
      "name": "publicSaleStartTime",
      "outputs": [
        {
          "internalType": "uint256",
          "name": "",
          "type": "uint256"
        }
      ],
      "stateMutability": "view",
      "type": "function"
    },
    {
      "inputs": [
        {
          "internalType": "address",
          "name": "",
          "type": "address"
        }
      ],
      "name": "refOf",
      "outputs": [
        {
          "internalType": "address",
          "name": "",
          "type": "address"
        }
      ],
      "stateMutability": "view",
      "type": "function"
    },
    {
      "inputs": [],
      "name": "renounceOwnership",
      "outputs": [],
      "stateMutability": "nonpayable",
      "type": "function"
    },
    {
      "inputs": [
        {
          "internalType": "uint256",
          "name": "_privateSaleStartTime",
          "type": "uint256"
        },
        {
          "internalType": "uint256",
          "name": "_privateSaleEndTime",
          "type": "uint256"
        },
        {
          "internalType": "uint256",
          "name": "_publicSaleStartTime",
          "type": "uint256"
        },
        {
          "internalType": "uint256",
          "name": "_withdrawStartTime",
          "type": "uint256"
        }
      ],
      "name": "setSaleTimes",
      "outputs": [],
      "stateMutability": "nonpayable",
      "type": "function"
    },
    {
      "inputs": [],
      "name": "soldTokenAmount",
      "outputs": [
        {
          "internalType": "uint256",
          "name": "",
          "type": "uint256"
        }
      ],
      "stateMutability": "view",
      "type": "function"
    },
    {
      "inputs": [],
      "name": "token",
      "outputs": [
        {
          "internalType": "contract IPAM",
          "name": "",
          "type": "address"
        }
      ],
      "stateMutability": "view",
      "type": "function"
    },
    {
      "inputs": [
        {
          "internalType": "address",
          "name": "",
          "type": "address"
        },
        {
          "internalType": "uint256",
          "name": "",
          "type": "uint256"
        }
      ],
      "name": "tokenDistribute",
      "outputs": [
        {
          "internalType": "uint256",
          "name": "amount",
          "type": "uint256"
        },
        {
          "internalType": "uint256",
          "name": "withdrawTime",
          "type": "uint256"
        },
        {
          "internalType": "bool",
          "name": "isWithdrawed",
          "type": "bool"
        }
      ],
      "stateMutability": "view",
      "type": "function"
    },
    {
      "inputs": [
        {
          "internalType": "address",
          "name": "newOwner",
          "type": "address"
        }
      ],
      "name": "transferOwnership",
      "outputs": [],
      "stateMutability": "nonpayable",
      "type": "function"
    },
    {
      "inputs": [],
      "name": "withdrawStartTime",
      "outputs": [
        {
          "internalType": "uint256",
          "name": "",
          "type": "uint256"
        }
      ],
      "stateMutability": "view",
      "type": "function"
    },
    {
      "inputs": [],
      "name": "withdrawTokens",
      "outputs": [],
      "stateMutability": "nonpayable",
      "type": "function"
    }
  ],
  "bytecode": "0x6101206040523480156200001257600080fd5b50604051620021a7380380620021a78339810160408190526200003591620001bd565b620000403362000098565b600180556001600160601b0319606085811b821660805286811b821660a05284811b821660c05283811b821660e05282901b16610100526002805460ff191690556200008c86620000e8565b50505050505062000266565b600080546001600160a01b038381166001600160a01b0319831681178455604051919092169283917f8be0079c531659141344cd1fd0a4f28419497f9722a3daafe3b4186f6b6457e09190a35050565b6000546001600160a01b03163314620001485760405162461bcd60e51b815260206004820181905260248201527f4f776e61626c653a2063616c6c6572206973206e6f7420746865206f776e657260448201526064015b60405180910390fd5b6001600160a01b038116620001af5760405162461bcd60e51b815260206004820152602660248201527f4f776e61626c653a206e6577206f776e657220697320746865207a65726f206160448201526564647265737360d01b60648201526084016200013f565b620001ba8162000098565b50565b60008060008060008060c08789031215620001d6578182fd5b8651620001e38162000250565b6020880151909650620001f68162000250565b6040880151909550620002098162000250565b60608801519094506200021c8162000250565b60808801519093506200022f8162000250565b60a0880151909250620002428162000250565b809150509295509295509295565b6001600160a01b0381168114620001ba57600080fd5b60805160601c60a05160601c60c05160601c60e05160601c6101005160601c611eae620002f9600039600081816104170152610bed0152600081816102600152610b850152600081816103cd0152610b230152600081816101c101528181610ea101528181610f6f015261109601526000818161051f0152818161069501528181610a9801526117e10152611eae6000f3fe6080604052600436106101815760003560e01c80638d8f2adb116100d1578063c6c28fd01161008a578063f2fde38b11610064578063f2fde38b146104b8578063f6777175146104d8578063f7fb07b0146104f8578063fc0c546a1461050d57600080fd5b8063c6c28fd014610459578063e77ff8181461048f578063ec8ac4d8146104a557600080fd5b80638d8f2adb146103885780638da5cb5b1461039d5780638dd95002146103bb578063940de97e146103ef578063b9f727b314610405578063c42ce9b31461043957600080fd5b80636715c6391161013e5780637bc10294116101185780637bc10294146102f1578063831e62701461031157806389995e3c1461033b5780638b337d711461036857600080fd5b80636715c639146102995780636bb7b1d9146102c6578063715018a6146102dc57600080fd5b8063079cff0a1461018657806323c7e09c146101af578063473d4723146101fb57806347bfbab014610238578063484f4ea91461024e57806358a687ec14610282575b600080fd5b34801561019257600080fd5b5061019c60075481565b6040519081526020015b60405180910390f35b3480156101bb57600080fd5b506101e37f000000000000000000000000000000000000000000000000000000000000000081565b6040516001600160a01b0390911681526020016101a6565b34801561020757600080fd5b5061021b610216366004611b52565b610541565b6040805193845260208401929092521515908201526060016101a6565b34801561024457600080fd5b5061019c60035481565b34801561025a57600080fd5b506101e37f000000000000000000000000000000000000000000000000000000000000000081565b34801561028e57600080fd5b50610297610586565b005b3480156102a557600080fd5b5061019c6102b4366004611b38565b60086020526000908152604090205481565b3480156102d257600080fd5b5061019c60065481565b3480156102e857600080fd5b50610297610735565b3480156102fd57600080fd5b5061029761030c366004611c73565b61076b565b34801561031d57600080fd5b5060025461032b9060ff1681565b60405190151581526020016101a6565b34801561034757600080fd5b5061035b610356366004611b38565b61085c565b6040516101a69190611cdd565b34801561037457600080fd5b5061019c610383366004611b38565b6108f0565b34801561039457600080fd5b506102976109e4565b3480156103a957600080fd5b506000546001600160a01b03166101e3565b3480156103c757600080fd5b506101e37f000000000000000000000000000000000000000000000000000000000000000081565b3480156103fb57600080fd5b5061019c60045481565b34801561041157600080fd5b506101e37f000000000000000000000000000000000000000000000000000000000000000081565b34801561044557600080fd5b5061019c610454366004611c5b565b610afc565b34801561046557600080fd5b506101e3610474366004611b38565b6009602052600090815260409020546001600160a01b031681565b34801561049b57600080fd5b5061019c60055481565b6102976104b3366004611b38565b610cac565b3480156104c457600080fd5b506102976104d3366004611b38565b6111ab565b3480156104e457600080fd5b5061019c6104f3366004611b38565b611246565b34801561050457600080fd5b5061019c611352565b34801561051957600080fd5b506101e37f000000000000000000000000000000000000000000000000000000000000000081565b600a602052816000526040600020818154811061055d57600080fd5b600091825260209091206003909102018054600182015460029092015490935090915060ff1683565b6000546001600160a01b031633146105b95760405162461bcd60e51b81526004016105b090611d38565b60405180910390fd5b60025460ff16156106005760405162461bcd60e51b8152602060048201526011602482015270105b1c9958591e48199a5b985b1a5e9959607a1b60448201526064016105b0565b6006546106109062d2f000611dc3565b4210156106495760405162461bcd60e51b81526020600482015260076024820152664e6f74206e6f7760c81b60448201526064016105b0565b6002805460ff19166001179055600354600090610672670de0b6b3a76400006347868c00611dfb565b61067c9190611e1a565b604051633da3f60d60e11b8152600481018290529091507f00000000000000000000000000000000000000000000000000000000000000006001600160a01b031690637b47ec1a90602401600060405180830381600087803b1580156106e157600080fd5b505af11580156106f5573d6000803e3d6000fd5b5050604080518481524260208201527f17b1a568460bc127a7f9a9677d502ac593fa4af690a1c3aed38bda591e196e2e935001905060405180910390a150565b6000546001600160a01b0316331461075f5760405162461bcd60e51b81526004016105b090611d38565b610769600061139c565b565b6000546001600160a01b031633146107955760405162461bcd60e51b81526004016105b090611d38565b42841180156107a357504281115b80156107ae57508284105b80156107b957508183105b6107fa5760405162461bcd60e51b8152602060048201526012602482015271496e76616c69642073616c652074696d657360701b60448201526064016105b0565b60048490556005839055600682905560078190556040805185815260208101859052908101839052606081018290527ff3204f8abaf401457d08a024c9befbf1a343af6435e58cd76932a54c6a096db39060800160405180910390a150505050565b6001600160a01b0381166000908152600a60209081526040808320805482518185028101850190935280835260609492939192909184015b828210156108e55760008481526020908190206040805160608101825260038602909201805483526001808201548486015260029091015460ff161515918301919091529083529092019101610894565b505050509050919050565b6001600160a01b0381166000908152600a6020908152604080832080548251818502810185019093528083528493849084015b828210156109745760008481526020908190206040805160608101825260038602909201805483526001808201548486015260029091015460ff161515918301919091529083529092019101610923565b50505050905060005b81518110156109dd5760008282815181106109a857634e487b7160e01b600052603260045260246000fd5b6020026020010151905080604001516109ca5780516109c79085611dc3565b93505b50806109d581611e31565b91505061097d565b5050919050565b600754421015610a365760405162461bcd60e51b815260206004820152601b60248201527f4974206973206e6f742077697468647261772074696d6520796574000000000060448201526064016105b0565b6000610a41336113ec565b905060008111610a935760405162461bcd60e51b815260206004820152601760248201527f4e6f7468696e6720746f207769746864726177206e6f7700000000000000000060448201526064016105b0565b610abf7f0000000000000000000000000000000000000000000000000000000000000000335b8361149e565b6040805182815242602082015233917f044c884abd813f9ed7ae1a0e58e82719e1daecbd1c8dda88f3b6fa1058ae8da4910160405180910390a250565b604080516002808252606082018352600092839291906020830190803683370190505090507f000000000000000000000000000000000000000000000000000000000000000081600081518110610b6357634e487b7160e01b600052603260045260246000fd5b60200260200101906001600160a01b031690816001600160a01b0316815250507f000000000000000000000000000000000000000000000000000000000000000081600181518110610bc557634e487b7160e01b600052603260045260246000fd5b6001600160a01b03928316602091820292909201015260405163d06ca61f60e01b81526000917f0000000000000000000000000000000000000000000000000000000000000000169063d06ca61f90610c249087908690600401611d6d565b60006040518083038186803b158015610c3c57600080fd5b505afa158015610c50573d6000803e3d6000fd5b505050506040513d6000823e601f3d908101601f19168201604052610c789190810190611b7b565b905080600181518110610c9b57634e487b7160e01b600052603260045260246000fd5b602002602001015192505050919050565b60026001541415610cff5760405162461bcd60e51b815260206004820152601f60248201527f5265656e7472616e637947756172643a207265656e7472616e742063616c6c0060448201526064016105b0565b6002600181905554429060ff1615610d4a5760405162461bcd60e51b815260206004820152600e60248201526d14d85b19481a185cc8195b99195960921b60448201526064016105b0565b600060045411610d9c5760405162461bcd60e51b815260206004820152601a60248201527f53616c65206861732079657420746f206265207374617274656400000000000060448201526064016105b0565b8060045411158015610db057506005548111155b80610dbd57506006548110155b610e025760405162461bcd60e51b81526020600482015260166024820152754e6f77206973206e6f7420612073616c652074696d6560501b60448201526064016105b0565b6000610e0d34610afc565b9050610e22670de0b6b3a76400006032611dfb565b811015610e6a5760405162461bcd60e51b8152602060048201526016602482015275056616c7565206973206c657373207468616e202435360541b60448201526064016105b0565b336000908152600960205260408120546001600160a01b0316610fcd573360009081526008602052604090205415610ecb57610ec67f0000000000000000000000000000000000000000000000000000000000000000346115b9565b6110c3565b6000610ee0670de0b6b3a76400006032611dfb565b6001600160a01b03861660009081526008602052604090205410610f6a57610f0b3460196064611687565b9050610f1785826115b9565b610f1f611769565b15610f6a57604080518481524260208201526001600160a01b0387169133917f43d021b801de1f5cd4feaed1a4605e4d501634652941a3c747e15867ffe8bf7f910160405180910390a35b610f9d7f0000000000000000000000000000000000000000000000000000000000000000610f988334611e1a565b6115b9565b505033600090815260096020526040902080546001600160a01b0319166001600160a01b038516179055826110c3565b336000818152600960205260408120546001600160a01b03169182148015906110205750611004670de0b6b3a76400006032611dfb565b6001600160a01b03831660009081526008602052604090205410155b15611091576110323460196064611687565b905061103e82826115b9565b611046611769565b1561109157604080518581524260208201526001600160a01b0384169133917f43d021b801de1f5cd4feaed1a4605e4d501634652941a3c747e15867ffe8bf7f910160405180910390a35b6110bf7f0000000000000000000000000000000000000000000000000000000000000000610f988334611e1a565b5090505b33600090815260086020526040812080548492906110e2908490611dc3565b90915550600090506110f383611786565b90506110fd611769565b15611153576040805184815260208101839052428183015290516001600160a01b0384169133917fb4e47e2368dcdf982cd0316621f7a97c998e4d510f0976b06ec4f9b8bacbfc2a9181900360600190a36111a0565b6040805184815260208101839052428183015290516001600160a01b0384169133917fb80235623e90d5fd946de34da81b2e02fe1707e7534e0a7f91040ff27e5f57459181900360600190a35b505060018055505050565b6000546001600160a01b031633146111d55760405162461bcd60e51b81526004016105b090611d38565b6001600160a01b03811661123a5760405162461bcd60e51b815260206004820152602660248201527f4f776e61626c653a206e6577206f776e657220697320746865207a65726f206160448201526564647265737360d01b60648201526084016105b0565b6112438161139c565b50565b6001600160a01b0381166000908152600a60209081526040808320805482518185028101850190935280835242938593929190849084015b828210156112cf5760008481526020908190206040805160608101825260038602909201805483526001808201548486015260029091015460ff16151591830191909152908352909201910161127e565b50505050905060005b815181101561134a57600082828151811061130357634e487b7160e01b600052603260045260246000fd5b602002602001015190508060200151841015801561132357508060400151155b156113375780516113349086611dc3565b94505b508061134281611e31565b9150506112d8565b505050919050565b6004546000904290811080159061136b57506005548111155b1561137d57655af3107a400091505090565b600654811061139457660110d9316ec00091505090565b600091505090565b600080546001600160a01b038381166001600160a01b0319831681178455604051919092169283917f8be0079c531659141344cd1fd0a4f28419497f9722a3daafe3b4186f6b6457e09190a35050565b6001600160a01b0381166000908152600a6020526040812081904290825b815481101561149457600082828154811061143557634e487b7160e01b600052603260045260246000fd5b906000526020600020906003020190508060010154841015801561145e5750600281015460ff16155b1561148157805461146f9086611dc3565b60028201805460ff1916600117905594505b508061148c81611e31565b91505061140a565b5091949350505050565b604080516001600160a01b038481166024830152604480830185905283518084039091018152606490920183526020820180516001600160e01b031663a9059cbb60e01b17905291516000928392908716916114fa9190611ca4565b6000604051808303816000865af19150503d8060008114611537576040519150601f19603f3d011682016040523d82523d6000602084013e61153c565b606091505b50915091508180156115665750805115806115665750808060200190518101906115669190611c3b565b6115b25760405162461bcd60e51b815260206004820152601f60248201527f5472616e7366657248656c7065723a205452414e534645525f4641494c45440060448201526064016105b0565b5050505050565b604080516000808252602082019092526001600160a01b0384169083906040516115e39190611ca4565b60006040518083038185875af1925050503d8060008114611620576040519150601f19603f3d011682016040523d82523d6000602084013e611625565b606091505b50509050806116825760405162461bcd60e51b815260206004820152602360248201527f5472616e7366657248656c7065723a20424e425f5452414e534645525f46414960448201526213115160ea1b60648201526084016105b0565b505050565b6000808060001985870985870292508281108382030391505080600014156116d0578382816116c657634e487b7160e01b600052601260045260246000fd5b0492505050611762565b8381106116fa57604051631dcf306360e21b815260048101829052602481018590526044016105b0565b600084868809851960019081018716968790049682860381900495909211909303600082900391909104909201919091029190911760038402600290811880860282030280860282030280860282030280860282030280860282030280860290910302029150505b9392505050565b60025460009060ff1615801561178157506006544210155b905090565b600080611791611352565b905060006117a884670de0b6b3a764000084611687565b90506117b381611827565b80600360008282546117c59190611dc3565b90915550600090506117da82600a6064611687565b90506118067f000000000000000000000000000000000000000000000000000000000000000033610ab9565b60006118128284611e1a565b905061181d81611910565b5090949350505050565b6000816003546118379190611dc3565b905060055442116118a757611858670de0b6b3a7640000630e4e1c00611dfb565b8111156118a75760405162461bcd60e51b815260206004820152601860248201527f507269766174652073616c6520697320736f6c64206f7574000000000000000060448201526064016105b0565b6118bd670de0b6b3a76400006347868c00611dfb565b81111561190c5760405162461bcd60e51b815260206004820152601760248201527f5075626c69632073616c6520697320736f6c64206f757400000000000000000060448201526064016105b0565b5050565b600061191d600c83611ddb565b600754336000908152600a6020526040812054929350429290919015611a3e5760005b336000908152600a60205260409020548110156119dd57336000908152600a6020526040812080548390811061198657634e487b7160e01b600052603260045260246000fd5b9060005260206000209060030201905080600101548510156119ca57858160000160008282546119b69190611dc3565b909155508490506119c681611e31565b9450505b50806119d581611e31565b915050611940565b50336000908152600a60205260409020805462278d009190611a0190600190611e1a565b81548110611a1f57634e487b7160e01b600052603260045260246000fd5b906000526020600020906003020160010154611a3b9190611dc3565b90505b80831115611a8857600062278d00611a568386611e1a565b611a609190611ddb565b611a6b906001611dc3565b9050611a7a62278d0082611dfb565b611a849083611dc3565b9150505b815b600c811015611b1457336000908152600a60209081526040808320815160608101835289815280840187815292810185815282546001808201855593875294909520905160039094020192835590519082015590516002909101805460ff1916911515919091179055611b0062278d0083611dc3565b915080611b0c81611e31565b915050611a8a565b505050505050565b80356001600160a01b0381168114611b3357600080fd5b919050565b600060208284031215611b49578081fd5b61176282611b1c565b60008060408385031215611b64578081fd5b611b6d83611b1c565b946020939093013593505050565b60006020808385031215611b8d578182fd5b825167ffffffffffffffff80821115611ba4578384fd5b818501915085601f830112611bb7578384fd5b815181811115611bc957611bc9611e62565b8060051b604051601f19603f83011681018181108582111715611bee57611bee611e62565b604052828152858101935084860182860187018a1015611c0c578788fd5b8795505b83861015611c2e578051855260019590950194938601938601611c10565b5098975050505050505050565b600060208284031215611c4c578081fd5b81518015158114611762578182fd5b600060208284031215611c6c578081fd5b5035919050565b60008060008060808587031215611c88578182fd5b5050823594602084013594506040840135936060013592509050565b60008251815b81811015611cc45760208186018101518583015201611caa565b81811115611cd25782828501525b509190910192915050565b602080825282518282018190526000919060409081850190868401855b82811015611d2b57815180518552868101518786015285015115158585015260609093019290850190600101611cfa565b5091979650505050505050565b6020808252818101527f4f776e61626c653a2063616c6c6572206973206e6f7420746865206f776e6572604082015260600190565b60006040820184835260206040818501528185518084526060860191508287019350845b81811015611db65784516001600160a01b031683529383019391830191600101611d91565b5090979650505050505050565b60008219821115611dd657611dd6611e4c565b500190565b600082611df657634e487b7160e01b81526012600452602481fd5b500490565b6000816000190483118215151615611e1557611e15611e4c565b500290565b600082821015611e2c57611e2c611e4c565b500390565b6000600019821415611e4557611e45611e4c565b5060010190565b634e487b7160e01b600052601160045260246000fd5b634e487b7160e01b600052604160045260246000fdfea2646970667358221220cf974a2d64be4c898fe9ae92c6cea4d55382ede7d707760f1e5a2160a732157f64736f6c63430008040033",
  "linkReferences": {},
  "deployedLinkReferences": {}
}