{
  "_format": "hh-sol-artifact-1",
  "contractName": "MathTester",
  "sourceName": "contracts/libraries/MathTester.sol",
  "abi": [
    {
      "inputs": [
        {
          "internalType": "uint256",
          "name": "prod1",
          "type": "uint256"
        }
      ],
      "name": "PRBMath__MulDivFixedPointOverflow",
      "type": "error"
    },
    {
      "inputs": [
        {
          "internalType": "uint256",
          "name": "x",
          "type": "uint256"
        },
        {
          "internalType": "uint256",
          "name": "y",
          "type": "uint256"
        }
      ],
      "name": "pow",
      "outputs": [
        {
          "internalType": "uint256",
          "name": "",
          "type": "uint256"
        }
      ],
      "stateMutability": "pure",
      "type": "function"
    }
  ],
  "bytecode": "0x608060405234801561001057600080fd5b506101e1806100206000396000f3fe608060405234801561001057600080fd5b506004361061002b5760003560e01c80632e4c697f14610030575b600080fd5b61004361003e36600461018a565b610055565b60405190815260200160405180910390f35b6000610061838361006a565b90505b92915050565b600080826001161161008457670de0b6b3a7640000610086565b825b9050600182901c91505b8115610064576100a083846100c4565b925060018216156100b8576100b581846100c4565b90505b600182901c9150610090565b60008080600019848609848602925082811083820303915050670de0b6b3a7640000811061010c5760405163698d9a0160e11b81526004810182905260240160405180910390fd5b600080670de0b6b3a76400008688099150506706f05b59d3b1ffff8111826101465780670de0b6b3a7640000850401945050505050610064565b620400008285030493909111909103600160ee1b02919091177faccb18165bd6fe31ae1cf318dc5b51eee0e1ba569b88cd74c1773b91fac106690201905092915050565b6000806040838503121561019c578182fd5b5050803592602090910135915056fea264697066735822122014eb6531281834bd0cf41b2063a788dabda2eb1a621cf14b86bd408381a71d0764736f6c63430008040033",
  "linkReferences": {},
  "deployedLinkReferences": {}
}