{
  "_format": "hh-sol-artifact-1",
  "contractName": "TreasuryVester",
  "sourceName": "contracts/TreasuryVester.sol",
  "abi": [
    {
      "inputs": [
        {
          "internalType": "address",
          "name": "_owner",
          "type": "address"
        },
        {
          "internalType": "address",
          "name": "_token",
          "type": "address"
        },
        {
          "components": [
            {
              "internalType": "address",
              "name": "bdInvestor1",
              "type": "address"
            },
            {
              "internalType": "address",
              "name": "bdInvestor2",
              "type": "address"
            },
            {
              "internalType": "address",
              "name": "bdTeam",
              "type": "address"
            },
            {
              "internalType": "address",
              "name": "marketing",
              "type": "address"
            },
            {
              "internalType": "address",
              "name": "technology",
              "type": "address"
            }
          ],
          "internalType": "struct TreasuryVester.AddressPosition",
          "name": "dataAP",
          "type": "tuple"
        },
        {
          "internalType": "uint256",
          "name": "cliff",
          "type": "uint256"
        }
      ],
      "stateMutability": "nonpayable",
      "type": "constructor"
    },
    {
      "inputs": [
        {
          "internalType": "uint256",
          "name": "prod1",
          "type": "uint256"
        },
        {
          "internalType": "uint256",
          "name": "denominator",
          "type": "uint256"
        }
      ],
      "name": "PRBMath__MulDivOverflow",
      "type": "error"
    },
    {
      "anonymous": false,
      "inputs": [
        {
          "indexed": false,
          "internalType": "address",
          "name": "sender",
          "type": "address"
        },
        {
          "indexed": false,
          "internalType": "uint256",
          "name": "amount",
          "type": "uint256"
        }
      ],
      "name": "Claim",
      "type": "event"
    },
    {
      "anonymous": false,
      "inputs": [
        {
          "indexed": true,
          "internalType": "address",
          "name": "previousOwner",
          "type": "address"
        },
        {
          "indexed": true,
          "internalType": "address",
          "name": "newOwner",
          "type": "address"
        }
      ],
      "name": "OwnershipTransferred",
      "type": "event"
    },
    {
      "inputs": [],
      "name": "AP",
      "outputs": [
        {
          "internalType": "address",
          "name": "bdInvestor1",
          "type": "address"
        },
        {
          "internalType": "address",
          "name": "bdInvestor2",
          "type": "address"
        },
        {
          "internalType": "address",
          "name": "bdTeam",
          "type": "address"
        },
        {
          "internalType": "address",
          "name": "marketing",
          "type": "address"
        },
        {
          "internalType": "address",
          "name": "technology",
          "type": "address"
        }
      ],
      "stateMutability": "view",
      "type": "function"
    },
    {
      "inputs": [],
      "name": "claim",
      "outputs": [],
      "stateMutability": "nonpayable",
      "type": "function"
    },
    {
      "inputs": [
        {
          "internalType": "address",
          "name": "_addressPosition",
          "type": "address"
        }
      ],
      "name": "getLockData",
      "outputs": [
        {
          "components": [
            {
              "internalType": "uint256",
              "name": "time",
              "type": "uint256"
            },
            {
              "internalType": "uint256",
              "name": "count",
              "type": "uint256"
            },
            {
              "internalType": "uint256",
              "name": "amountEach",
              "type": "uint256"
            }
          ],
          "internalType": "struct TreasuryVester.Lock",
          "name": "",
          "type": "tuple"
        }
      ],
      "stateMutability": "view",
      "type": "function"
    },
    {
      "inputs": [],
      "name": "owner",
      "outputs": [
        {
          "internalType": "address",
          "name": "",
          "type": "address"
        }
      ],
      "stateMutability": "view",
      "type": "function"
    },
    {
      "inputs": [],
      "name": "renounceOwnership",
      "outputs": [],
      "stateMutability": "nonpayable",
      "type": "function"
    },
    {
      "inputs": [],
      "name": "token",
      "outputs": [
        {
          "internalType": "address",
          "name": "",
          "type": "address"
        }
      ],
      "stateMutability": "view",
      "type": "function"
    },
    {
      "inputs": [
        {
          "internalType": "address",
          "name": "newOwner",
          "type": "address"
        }
      ],
      "name": "transferOwnership",
      "outputs": [],
      "stateMutability": "nonpayable",
      "type": "function"
    },
    {
      "inputs": [],
      "name": "vestingCliff",
      "outputs": [
        {
          "internalType": "uint256",
          "name": "",
          "type": "uint256"
        }
      ],
      "stateMutability": "view",
      "type": "function"
    }
  ],
  "bytecode": "0x60806040523480156200001157600080fd5b5060405162000f8438038062000f848339810160408190526200003491620005b2565b6200003f3362000389565b600180546001600160a01b03199081166001600160a01b0386811691909117909255600983905583516002805483169184169190911790556020808501516003805484169185169190911790556040808601516004805485169186169190911790556060808701516005805486169187169190911790556080870151600680549095169516949094179092558151928301825262278d0083526024838201819052918301916200010891632160ec0091670de0b6b3a764000091620003d9811b6200056b17901c565b8152506008600084600001516001600160a01b03166001600160a01b03168152602001908152602001600020600082015181600001556020820151816001015560408201518160020155905050604051806060016040528062278d0081526020016024815260200162000195632160ec00670de0b6b3a76400006024620003d960201b6200056b1760201c565b8152506008600084602001516001600160a01b03166001600160a01b03168152602001908152602001600020600082015181600001556020820151816001015560408201518160020155905050604051806060016040528062278d0081526020016024815260200162000222631c9c3800670de0b6b3a76400006024620003d960201b6200056b1760201c565b8152506008600084604001516001600160a01b03166001600160a01b03168152602001908152602001600020600082015181600001556020820151816001015560408201518160020155905050604051806060016040528062278d00815260200160248152602001620002af632faf0800670de0b6b3a76400006024620003d960201b6200056b1760201c565b8152506008600084606001516001600160a01b03166001600160a01b03168152602001908152602001600020600082015181600001556020820151816001015560408201518160020155905050604051806060016040528062278d008152602001602481526020016200033c630e4e1c00670de0b6b3a76400006024620003d960201b6200056b1760201c565b905260808301516001600160a01b0316600090815260086020908152604091829020835181559083015160018201559101516002909101556200037f84620004c4565b505050506200069a565b600080546001600160a01b038381166001600160a01b0319831681178455604051919092169283917f8be0079c531659141344cd1fd0a4f28419497f9722a3daafe3b4186f6b6457e09190a35050565b60008080600019858709858702925082811083820303915050806000141562000425578382816200041a57634e487b7160e01b600052601260045260246000fd5b0492505050620004bd565b8381106200045557604051631dcf306360e21b815260048101829052602481018590526044015b60405180910390fd5b600084868809851960019081018716968790049682860381900495909211909303600082900391909104909201919091029190911760038402600290811880860282030280860282030280860282030280860282030280860282030280860290910302029150505b9392505050565b6000546001600160a01b03163314620005205760405162461bcd60e51b815260206004820181905260248201527f4f776e61626c653a2063616c6c6572206973206e6f7420746865206f776e657260448201526064016200044c565b6001600160a01b038116620005875760405162461bcd60e51b815260206004820152602660248201527f4f776e61626c653a206e6577206f776e657220697320746865207a65726f206160448201526564647265737360d01b60648201526084016200044c565b620005928162000389565b50565b80516001600160a01b0381168114620005ad57600080fd5b919050565b600080600080848603610100811215620005ca578485fd5b620005d58662000595565b9450620005e56020870162000595565b935060a0603f1982011215620005f9578283fd5b5060405160a081016001600160401b03811182821017156200062957634e487b7160e01b84526041600452602484fd5b80604052506200063c6040870162000595565b81526200064c6060870162000595565b60208201526200065f6080870162000595565b60408201526200067260a0870162000595565b60608201526200068560c0870162000595565b608082015260e0959095015193969295505050565b6108da80620006aa6000396000f3fe608060405234801561001057600080fd5b50600436106100885760003560e01c8063c62223311161005b578063c62223311461012f578063f2fde38b14610164578063f3640e7414610177578063fc0c546a1461018e57600080fd5b80634e71d92d1461008d57806370bf809814610097578063715018a6146101025780638da5cb5b1461010a575b600080fd5b6100956101a1565b005b6002546003546004546005546006546100c3946001600160a01b03908116948116938116928116911685565b604080516001600160a01b03968716815294861660208601529285169284019290925283166060830152909116608082015260a0015b60405180910390f35b6100956103d4565b6000546001600160a01b03165b6040516001600160a01b0390911681526020016100f9565b61014261013d3660046107b8565b61043a565b60408051825181526020808401519082015291810151908201526060016100f9565b6100956101723660046107b8565b6104a0565b61018060095481565b6040519081526020016100f9565b600154610117906001600160a01b031681565b60006101ac3361043a565b905060008160200151116101fa5760405162461bcd60e51b815260206004820152601060248201526f4e6f7468696e6720746f20636c61696d60801b60448201526064015b60405180910390fd5b33600090815260076020526040902054600954429081101561024d5760405162461bcd60e51b815260206004820152600c60248201526b139bdd081d1a5b59481e595d60a21b60448201526064016101f1565b6000826102745783516009546102639084610877565b61026d9190610838565b90506102d1565b83516102808484610877565b10156102b85760405162461bcd60e51b81526020600482015260076024820152664e6f74206e6f7760c81b60448201526064016101f1565b83516102c48484610877565b6102ce9190610838565b90505b836020015181106102e3575060208301515b60008185604001516102f59190610858565b9050600081116103385760405162461bcd60e51b815260206004820152600e60248201526d125b9d985b1a5908185b5bdd5b9d60921b60448201526064016101f1565b336000908152600860205260408120600101805484929061035a908490610877565b909155505033600081815260076020526040902084905560015461038a916001600160a01b03909116908361064d565b7f47cee97cb7acd717b3c0aa1435d004cd5b3c8c57d70dbceb4e4458bbd60e39d433604080516001600160a01b039092168252602082018490520160405180910390a15050505050565b6000546001600160a01b0316331461042e5760405162461bcd60e51b815260206004820181905260248201527f4f776e61626c653a2063616c6c6572206973206e6f7420746865206f776e657260448201526064016101f1565b6104386000610768565b565b61045e60405180606001604052806000815260200160008152602001600081525090565b506001600160a01b0316600090815260086020908152604091829020825160608101845281548152600182015492810192909252600201549181019190915290565b6000546001600160a01b031633146104fa5760405162461bcd60e51b815260206004820181905260248201527f4f776e61626c653a2063616c6c6572206973206e6f7420746865206f776e657260448201526064016101f1565b6001600160a01b03811661055f5760405162461bcd60e51b815260206004820152602660248201527f4f776e61626c653a206e6577206f776e657220697320746865207a65726f206160448201526564647265737360d01b60648201526084016101f1565b61056881610768565b50565b6000808060001985870985870292508281108382030391505080600014156105b4578382816105aa57634e487b7160e01b600052601260045260246000fd5b0492505050610646565b8381106105de57604051631dcf306360e21b815260048101829052602481018590526044016101f1565b600084868809851960019081018716968790049682860381900495909211909303600082900391909104909201919091029190911760038402600290811880860282030280860282030280860282030280860282030280860282030280860290910302029150505b9392505050565b604080516001600160a01b038481166024830152604480830185905283518084039091018152606490920183526020820180516001600160e01b031663a9059cbb60e01b17905291516000928392908716916106a991906107ff565b6000604051808303816000865af19150503d80600081146106e6576040519150601f19603f3d011682016040523d82523d6000602084013e6106eb565b606091505b509150915081801561071557508051158061071557508080602001905181019061071591906107df565b6107615760405162461bcd60e51b815260206004820152601f60248201527f5472616e7366657248656c7065723a205452414e534645525f4641494c45440060448201526064016101f1565b5050505050565b600080546001600160a01b038381166001600160a01b0319831681178455604051919092169283917f8be0079c531659141344cd1fd0a4f28419497f9722a3daafe3b4186f6b6457e09190a35050565b6000602082840312156107c9578081fd5b81356001600160a01b0381168114610646578182fd5b6000602082840312156107f0578081fd5b81518015158114610646578182fd5b60008251815b8181101561081f5760208186018101518583015201610805565b8181111561082d5782828501525b509190910192915050565b60008261085357634e487b7160e01b81526012600452602481fd5b500490565b60008160001904831182151516156108725761087261088e565b500290565b6000828210156108895761088961088e565b500390565b634e487b7160e01b600052601160045260246000fdfea264697066735822122073defe2828406e381751336d7b0054fc5ae0bf17a67c3e1e49df1f5bc115eced64736f6c63430008040033",
  "linkReferences": {},
  "deployedLinkReferences": {}
}