{
  "_format": "hh-sol-artifact-1",
  "contractName": "TokenPAM",
  "sourceName": "contracts/TokenPAM.sol",
  "abi": [
    {
      "inputs": [
        {
          "internalType": "address",
          "name": "owner",
          "type": "address"
        },
        {
          "internalType": "string",
          "name": "name",
          "type": "string"
        },
        {
          "internalType": "string",
          "name": "symbol",
          "type": "string"
        }
      ],
      "stateMutability": "nonpayable",
      "type": "constructor"
    },
    {
      "anonymous": false,
      "inputs": [
        {
          "indexed": true,
          "internalType": "address",
          "name": "owner",
          "type": "address"
        },
        {
          "indexed": true,
          "internalType": "address",
          "name": "spender",
          "type": "address"
        },
        {
          "indexed": false,
          "internalType": "uint256",
          "name": "value",
          "type": "uint256"
        }
      ],
      "name": "Approval",
      "type": "event"
    },
    {
      "anonymous": false,
      "inputs": [
        {
          "indexed": true,
          "internalType": "address",
          "name": "previousOwner",
          "type": "address"
        },
        {
          "indexed": true,
          "internalType": "address",
          "name": "newOwner",
          "type": "address"
        }
      ],
      "name": "OwnershipTransferred",
      "type": "event"
    },
    {
      "anonymous": false,
      "inputs": [
        {
          "indexed": true,
          "internalType": "address",
          "name": "from",
          "type": "address"
        },
        {
          "indexed": true,
          "internalType": "address",
          "name": "to",
          "type": "address"
        },
        {
          "indexed": false,
          "internalType": "uint256",
          "name": "value",
          "type": "uint256"
        }
      ],
      "name": "Transfer",
      "type": "event"
    },
    {
      "inputs": [
        {
          "internalType": "address",
          "name": "minter",
          "type": "address"
        }
      ],
      "name": "addMinter",
      "outputs": [],
      "stateMutability": "nonpayable",
      "type": "function"
    },
    {
      "inputs": [
        {
          "internalType": "address",
          "name": "owner",
          "type": "address"
        },
        {
          "internalType": "address",
          "name": "spender",
          "type": "address"
        }
      ],
      "name": "allowance",
      "outputs": [
        {
          "internalType": "uint256",
          "name": "",
          "type": "uint256"
        }
      ],
      "stateMutability": "view",
      "type": "function"
    },
    {
      "inputs": [
        {
          "internalType": "address",
          "name": "spender",
          "type": "address"
        },
        {
          "internalType": "uint256",
          "name": "amount",
          "type": "uint256"
        }
      ],
      "name": "approve",
      "outputs": [
        {
          "internalType": "bool",
          "name": "",
          "type": "bool"
        }
      ],
      "stateMutability": "nonpayable",
      "type": "function"
    },
    {
      "inputs": [
        {
          "internalType": "address",
          "name": "account",
          "type": "address"
        }
      ],
      "name": "balanceOf",
      "outputs": [
        {
          "internalType": "uint256",
          "name": "",
          "type": "uint256"
        }
      ],
      "stateMutability": "view",
      "type": "function"
    },
    {
      "inputs": [
        {
          "internalType": "uint256",
          "name": "amount",
          "type": "uint256"
        }
      ],
      "name": "burnToken",
      "outputs": [],
      "stateMutability": "nonpayable",
      "type": "function"
    },
    {
      "inputs": [],
      "name": "decimals",
      "outputs": [
        {
          "internalType": "uint8",
          "name": "",
          "type": "uint8"
        }
      ],
      "stateMutability": "view",
      "type": "function"
    },
    {
      "inputs": [
        {
          "internalType": "address",
          "name": "spender",
          "type": "address"
        },
        {
          "internalType": "uint256",
          "name": "subtractedValue",
          "type": "uint256"
        }
      ],
      "name": "decreaseAllowance",
      "outputs": [
        {
          "internalType": "bool",
          "name": "",
          "type": "bool"
        }
      ],
      "stateMutability": "nonpayable",
      "type": "function"
    },
    {
      "inputs": [
        {
          "internalType": "address",
          "name": "spender",
          "type": "address"
        },
        {
          "internalType": "uint256",
          "name": "addedValue",
          "type": "uint256"
        }
      ],
      "name": "increaseAllowance",
      "outputs": [
        {
          "internalType": "bool",
          "name": "",
          "type": "bool"
        }
      ],
      "stateMutability": "nonpayable",
      "type": "function"
    },
    {
      "inputs": [
        {
          "internalType": "address",
          "name": "sale",
          "type": "address"
        },
        {
          "internalType": "address",
          "name": "airdrop",
          "type": "address"
        },
        {
          "internalType": "address",
          "name": "liq",
          "type": "address"
        },
        {
          "internalType": "address",
          "name": "treasury",
          "type": "address"
        }
      ],
      "name": "initilize",
      "outputs": [],
      "stateMutability": "nonpayable",
      "type": "function"
    },
    {
      "inputs": [
        {
          "internalType": "address",
          "name": "receiver",
          "type": "address"
        },
        {
          "internalType": "uint256",
          "name": "amount",
          "type": "uint256"
        }
      ],
      "name": "mintToken",
      "outputs": [],
      "stateMutability": "nonpayable",
      "type": "function"
    },
    {
      "inputs": [],
      "name": "name",
      "outputs": [
        {
          "internalType": "string",
          "name": "",
          "type": "string"
        }
      ],
      "stateMutability": "view",
      "type": "function"
    },
    {
      "inputs": [],
      "name": "owner",
      "outputs": [
        {
          "internalType": "address",
          "name": "",
          "type": "address"
        }
      ],
      "stateMutability": "view",
      "type": "function"
    },
    {
      "inputs": [
        {
          "internalType": "address",
          "name": "minter",
          "type": "address"
        }
      ],
      "name": "removeMinter",
      "outputs": [],
      "stateMutability": "nonpayable",
      "type": "function"
    },
    {
      "inputs": [],
      "name": "renounceOwnership",
      "outputs": [],
      "stateMutability": "nonpayable",
      "type": "function"
    },
    {
      "inputs": [],
      "name": "symbol",
      "outputs": [
        {
          "internalType": "string",
          "name": "",
          "type": "string"
        }
      ],
      "stateMutability": "view",
      "type": "function"
    },
    {
      "inputs": [],
      "name": "totalSupply",
      "outputs": [
        {
          "internalType": "uint256",
          "name": "",
          "type": "uint256"
        }
      ],
      "stateMutability": "view",
      "type": "function"
    },
    {
      "inputs": [
        {
          "internalType": "address",
          "name": "recipient",
          "type": "address"
        },
        {
          "internalType": "uint256",
          "name": "amount",
          "type": "uint256"
        }
      ],
      "name": "transfer",
      "outputs": [
        {
          "internalType": "bool",
          "name": "",
          "type": "bool"
        }
      ],
      "stateMutability": "nonpayable",
      "type": "function"
    },
    {
      "inputs": [
        {
          "internalType": "address",
          "name": "sender",
          "type": "address"
        },
        {
          "internalType": "address",
          "name": "recipient",
          "type": "address"
        },
        {
          "internalType": "uint256",
          "name": "amount",
          "type": "uint256"
        }
      ],
      "name": "transferFrom",
      "outputs": [
        {
          "internalType": "bool",
          "name": "",
          "type": "bool"
        }
      ],
      "stateMutability": "nonpayable",
      "type": "function"
    },
    {
      "inputs": [
        {
          "internalType": "address",
          "name": "newOwner",
          "type": "address"
        }
      ],
      "name": "transferOwnership",
      "outputs": [],
      "stateMutability": "nonpayable",
      "type": "function"
    }
  ],
  "bytecode": "0x60806040523480156200001157600080fd5b506040516200144738038062001447833981016040819052620000349162000318565b8151829082906200004d906003906020850190620001bf565b50805162000063906004906020840190620001bf565b505050620000806200007a6200009460201b60201c565b62000098565b6200008b83620000ea565b505050620003f1565b3390565b600580546001600160a01b038381166001600160a01b0319831681179093556040519116919082907f8be0079c531659141344cd1fd0a4f28419497f9722a3daafe3b4186f6b6457e090600090a35050565b6005546001600160a01b031633146200014a5760405162461bcd60e51b815260206004820181905260248201527f4f776e61626c653a2063616c6c6572206973206e6f7420746865206f776e657260448201526064015b60405180910390fd5b6001600160a01b038116620001b15760405162461bcd60e51b815260206004820152602660248201527f4f776e61626c653a206e6577206f776e657220697320746865207a65726f206160448201526564647265737360d01b606482015260840162000141565b620001bc8162000098565b50565b828054620001cd906200039e565b90600052602060002090601f016020900481019282620001f157600085556200023c565b82601f106200020c57805160ff19168380011785556200023c565b828001600101855582156200023c579182015b828111156200023c5782518255916020019190600101906200021f565b506200024a9291506200024e565b5090565b5b808211156200024a57600081556001016200024f565b600082601f83011262000276578081fd5b81516001600160401b0380821115620002935762000293620003db565b604051601f8301601f19908116603f01168101908282118183101715620002be57620002be620003db565b81604052838152602092508683858801011115620002da578485fd5b8491505b83821015620002fd5785820183015181830184015290820190620002de565b838211156200030e57848385830101525b9695505050505050565b6000806000606084860312156200032d578283fd5b83516001600160a01b038116811462000344578384fd5b60208501519093506001600160401b038082111562000361578384fd5b6200036f8783880162000265565b9350604086015191508082111562000385578283fd5b50620003948682870162000265565b9150509250925092565b600181811c90821680620003b357607f821691505b60208210811415620003d557634e487b7160e01b600052602260045260246000fd5b50919050565b634e487b7160e01b600052604160045260246000fd5b61104680620004016000396000f3fe608060405234801561001057600080fd5b50600436106101215760003560e01c806379c65068116100ad578063a457c2d711610071578063a457c2d714610250578063a9059cbb14610263578063d1f0afd414610276578063dd62ed3e14610289578063f2fde38b146102c257600080fd5b806379c65068146101f45780637b47ec1a146102075780638da5cb5b1461021a57806395d89b4114610235578063983b2d561461023d57600080fd5b80633092afd5116100f45780633092afd51461018c578063313ce567146101a157806339509351146101b057806370a08231146101c3578063715018a6146101ec57600080fd5b806306fdde0314610126578063095ea7b31461014457806318160ddd1461016757806323b872dd14610179575b600080fd5b61012e6102d5565b60405161013b9190610ee9565b60405180910390f35b610157610152366004610ea8565b610367565b604051901515815260200161013b565b6002545b60405190815260200161013b565b610157610187366004610e6d565b61037d565b61019f61019a366004610dc7565b61042c565b005b6040516012815260200161013b565b6101576101be366004610ea8565b610477565b61016b6101d1366004610dc7565b6001600160a01b031660009081526020819052604090205490565b61019f6104b3565b61019f610202366004610ea8565b6104e9565b61019f610215366004610ed1565b6105ab565b6005546040516001600160a01b03909116815260200161013b565b61012e6105b8565b61019f61024b366004610dc7565b6105c7565b61015761025e366004610ea8565b610615565b610157610271366004610ea8565b6106ae565b61019f610284366004610e1a565b6106bb565b61016b610297366004610de8565b6001600160a01b03918216600090815260016020908152604080832093909416825291909152205490565b61019f6102d0366004610dc7565b6107a8565b6060600380546102e490610fbf565b80601f016020809104026020016040519081016040528092919081815260200182805461031090610fbf565b801561035d5780601f106103325761010080835404028352916020019161035d565b820191906000526020600020905b81548152906001019060200180831161034057829003601f168201915b5050505050905090565b6000610374338484610840565b50600192915050565b600061038a848484610965565b6001600160a01b0384166000908152600160209081526040808320338452909152902054828110156104145760405162461bcd60e51b815260206004820152602860248201527f45524332303a207472616e7366657220616d6f756e74206578636565647320616044820152676c6c6f77616e636560c01b60648201526084015b60405180910390fd5b6104218533858403610840565b506001949350505050565b6005546001600160a01b031633146104565760405162461bcd60e51b815260040161040b90610f3c565b6001600160a01b03166000908152600660205260409020805460ff19169055565b3360008181526001602090815260408083206001600160a01b038716845290915281205490916103749185906104ae908690610f71565b610840565b6005546001600160a01b031633146104dd5760405162461bcd60e51b815260040161040b90610f3c565b6104e76000610b34565b565b3360009081526006602052604090205460ff1661053f5760405162461bcd60e51b815260206004820152601460248201527321b0b63632b91034b9903737ba1036b4b73a32b960611b604482015260640161040b565b6b19d971e4fe8401e7400000008161055660025490565b6105609190610f71565b111561059d5760405162461bcd60e51b815260206004820152600c60248201526b10d85c08195e18d95959195960a21b604482015260640161040b565b6105a78282610b86565b5050565b6105b53382610c65565b50565b6060600480546102e490610fbf565b6005546001600160a01b031633146105f15760405162461bcd60e51b815260040161040b90610f3c565b6001600160a01b03166000908152600660205260409020805460ff19166001179055565b3360009081526001602090815260408083206001600160a01b0386168452909152812054828110156106975760405162461bcd60e51b815260206004820152602560248201527f45524332303a2064656372656173656420616c6c6f77616e63652062656c6f77604482015264207a65726f60d81b606482015260840161040b565b6106a43385858403610840565b5060019392505050565b6000610374338484610965565b6005546001600160a01b031633146106e55760405162461bcd60e51b815260040161040b90610f3c565b60075460ff16156107285760405162461bcd60e51b815260206004820152600d60248201526c4f6e6c79206f6e652074696d6560981b604482015260640161040b565b61074784610742670de0b6b3a76400006347868c00610f89565b610b86565b61076183610742670de0b6b3a76400006309896800610f89565b61077b82610742670de0b6b3a76400006317d78400610f89565b61079581610742670de0b6b3a7640000639d5b3400610f89565b50506007805460ff191660011790555050565b6005546001600160a01b031633146107d25760405162461bcd60e51b815260040161040b90610f3c565b6001600160a01b0381166108375760405162461bcd60e51b815260206004820152602660248201527f4f776e61626c653a206e6577206f776e657220697320746865207a65726f206160448201526564647265737360d01b606482015260840161040b565b6105b581610b34565b6001600160a01b0383166108a25760405162461bcd60e51b8152602060048201526024808201527f45524332303a20617070726f76652066726f6d20746865207a65726f206164646044820152637265737360e01b606482015260840161040b565b6001600160a01b0382166109035760405162461bcd60e51b815260206004820152602260248201527f45524332303a20617070726f766520746f20746865207a65726f206164647265604482015261737360f01b606482015260840161040b565b6001600160a01b0383811660008181526001602090815260408083209487168084529482529182902085905590518481527f8c5be1e5ebec7d5bd14f71427d1e84f3dd0314c0f7b2291e5b200ac8c7c3b92591015b60405180910390a3505050565b6001600160a01b0383166109c95760405162461bcd60e51b815260206004820152602560248201527f45524332303a207472616e736665722066726f6d20746865207a65726f206164604482015264647265737360d81b606482015260840161040b565b6001600160a01b038216610a2b5760405162461bcd60e51b815260206004820152602360248201527f45524332303a207472616e7366657220746f20746865207a65726f206164647260448201526265737360e81b606482015260840161040b565b6001600160a01b03831660009081526020819052604090205481811015610aa35760405162461bcd60e51b815260206004820152602660248201527f45524332303a207472616e7366657220616d6f756e7420657863656564732062604482015265616c616e636560d01b606482015260840161040b565b6001600160a01b03808516600090815260208190526040808220858503905591851681529081208054849290610ada908490610f71565b92505081905550826001600160a01b0316846001600160a01b03167fddf252ad1be2c89b69c2b068fc378daa952ba7f163c4a11628f55a4df523b3ef84604051610b2691815260200190565b60405180910390a350505050565b600580546001600160a01b038381166001600160a01b0319831681179093556040519116919082907f8be0079c531659141344cd1fd0a4f28419497f9722a3daafe3b4186f6b6457e090600090a35050565b6001600160a01b038216610bdc5760405162461bcd60e51b815260206004820152601f60248201527f45524332303a206d696e7420746f20746865207a65726f206164647265737300604482015260640161040b565b8060026000828254610bee9190610f71565b90915550506001600160a01b03821660009081526020819052604081208054839290610c1b908490610f71565b90915550506040518181526001600160a01b038316906000907fddf252ad1be2c89b69c2b068fc378daa952ba7f163c4a11628f55a4df523b3ef9060200160405180910390a35050565b6001600160a01b038216610cc55760405162461bcd60e51b815260206004820152602160248201527f45524332303a206275726e2066726f6d20746865207a65726f206164647265736044820152607360f81b606482015260840161040b565b6001600160a01b03821660009081526020819052604090205481811015610d395760405162461bcd60e51b815260206004820152602260248201527f45524332303a206275726e20616d6f756e7420657863656564732062616c616e604482015261636560f01b606482015260840161040b565b6001600160a01b0383166000908152602081905260408120838303905560028054849290610d68908490610fa8565b90915550506040518281526000906001600160a01b038516907fddf252ad1be2c89b69c2b068fc378daa952ba7f163c4a11628f55a4df523b3ef90602001610958565b80356001600160a01b0381168114610dc257600080fd5b919050565b600060208284031215610dd8578081fd5b610de182610dab565b9392505050565b60008060408385031215610dfa578081fd5b610e0383610dab565b9150610e1160208401610dab565b90509250929050565b60008060008060808587031215610e2f578182fd5b610e3885610dab565b9350610e4660208601610dab565b9250610e5460408601610dab565b9150610e6260608601610dab565b905092959194509250565b600080600060608486031215610e81578283fd5b610e8a84610dab565b9250610e9860208501610dab565b9150604084013590509250925092565b60008060408385031215610eba578182fd5b610ec383610dab565b946020939093013593505050565b600060208284031215610ee2578081fd5b5035919050565b6000602080835283518082850152825b81811015610f1557858101830151858201604001528201610ef9565b81811115610f265783604083870101525b50601f01601f1916929092016040019392505050565b6020808252818101527f4f776e61626c653a2063616c6c6572206973206e6f7420746865206f776e6572604082015260600190565b60008219821115610f8457610f84610ffa565b500190565b6000816000190483118215151615610fa357610fa3610ffa565b500290565b600082821015610fba57610fba610ffa565b500390565b600181811c90821680610fd357607f821691505b60208210811415610ff457634e487b7160e01b600052602260045260246000fd5b50919050565b634e487b7160e01b600052601160045260246000fdfea26469706673582212205b062bd99a6d9c0d2c4a999c169cfb6629933795b69c6636821510872f3948b664736f6c63430008040033",
  "linkReferences": {},
  "deployedLinkReferences": {}
}