{
  "_format": "hh-sol-artifact-1",
  "contractName": "SCoinAirdrop",
  "sourceName": "contracts/Airdrop.sol",
  "abi": [
    {
      "inputs": [
        {
          "internalType": "address",
          "name": "owner",
          "type": "address"
        },
        {
          "internalType": "address",
          "name": "_token",
          "type": "address"
        }
      ],
      "stateMutability": "nonpayable",
      "type": "constructor"
    },
    {
      "anonymous": false,
      "inputs": [
        {
          "indexed": false,
          "internalType": "address[]",
          "name": "listReceiver",
          "type": "address[]"
        },
        {
          "indexed": false,
          "internalType": "uint256",
          "name": "tokenAmount",
          "type": "uint256"
        }
      ],
      "name": "AirDrop",
      "type": "event"
    },
    {
      "anonymous": false,
      "inputs": [
        {
          "indexed": false,
          "internalType": "address[]",
          "name": "listReceiver",
          "type": "address[]"
        },
        {
          "indexed": false,
          "internalType": "uint256[]",
          "name": "tokenAmount",
          "type": "uint256[]"
        }
      ],
      "name": "AirDropBatch",
      "type": "event"
    },
    {
      "anonymous": false,
      "inputs": [
        {
          "indexed": true,
          "internalType": "address",
          "name": "previousOwner",
          "type": "address"
        },
        {
          "indexed": true,
          "internalType": "address",
          "name": "newOwner",
          "type": "address"
        }
      ],
      "name": "OwnershipTransferred",
      "type": "event"
    },
    {
      "inputs": [
        {
          "internalType": "address[]",
          "name": "listReceiver",
          "type": "address[]"
        },
        {
          "internalType": "uint256",
          "name": "tokenAmount",
          "type": "uint256"
        }
      ],
      "name": "airDrop",
      "outputs": [],
      "stateMutability": "nonpayable",
      "type": "function"
    },
    {
      "inputs": [
        {
          "internalType": "address[]",
          "name": "listReceiver",
          "type": "address[]"
        },
        {
          "internalType": "uint256[]",
          "name": "tokenAmounts",
          "type": "uint256[]"
        }
      ],
      "name": "airDropBatch",
      "outputs": [],
      "stateMutability": "nonpayable",
      "type": "function"
    },
    {
      "inputs": [],
      "name": "owner",
      "outputs": [
        {
          "internalType": "address",
          "name": "",
          "type": "address"
        }
      ],
      "stateMutability": "view",
      "type": "function"
    },
    {
      "inputs": [],
      "name": "renounceOwnership",
      "outputs": [],
      "stateMutability": "nonpayable",
      "type": "function"
    },
    {
      "inputs": [],
      "name": "token",
      "outputs": [
        {
          "internalType": "address",
          "name": "",
          "type": "address"
        }
      ],
      "stateMutability": "view",
      "type": "function"
    },
    {
      "inputs": [
        {
          "internalType": "address",
          "name": "newOwner",
          "type": "address"
        }
      ],
      "name": "transferOwnership",
      "outputs": [],
      "stateMutability": "nonpayable",
      "type": "function"
    }
  ],
  "bytecode": "0x608060405261025860015534801561001657600080fd5b50604051610c29380380610c29833981016040819052610035916101a5565b61003e33610069565b600280546001600160a01b0319166001600160a01b038316179055610062826100b9565b50506101d7565b600080546001600160a01b038381166001600160a01b0319831681178455604051919092169283917f8be0079c531659141344cd1fd0a4f28419497f9722a3daafe3b4186f6b6457e09190a35050565b6000546001600160a01b031633146101185760405162461bcd60e51b815260206004820181905260248201527f4f776e61626c653a2063616c6c6572206973206e6f7420746865206f776e657260448201526064015b60405180910390fd5b6001600160a01b03811661017d5760405162461bcd60e51b815260206004820152602660248201527f4f776e61626c653a206e6577206f776e657220697320746865207a65726f206160448201526564647265737360d01b606482015260840161010f565b61018681610069565b50565b80516001600160a01b03811681146101a057600080fd5b919050565b600080604083850312156101b7578182fd5b6101c083610189565b91506101ce60208401610189565b90509250929050565b610a43806101e66000396000f3fe608060405234801561001057600080fd5b50600436106100625760003560e01c8063715018a6146100675780638da5cb5b146100715780638fede9991461009a578063f2fde38b146100ad578063fc0c546a146100c0578063fd1fc4a0146100d3575b600080fd5b61006f6100e6565b005b6000546001600160a01b03165b6040516001600160a01b03909116815260200160405180910390f35b61006f6100a8366004610740565b610125565b61006f6100bb36600461071f565b610324565b60025461007e906001600160a01b031681565b61006f6100e13660046107fc565b6103bf565b6000546001600160a01b031633146101195760405162461bcd60e51b815260040161011090610946565b60405180910390fd5b6101236000610522565b565b6000546001600160a01b0316331461014f5760405162461bcd60e51b815260040161011090610946565b80518251146101915760405162461bcd60e51b815260206004820152600e60248201526d092dcecc2d8d2c840d8cadccee8d60931b6044820152606401610110565b600082511180156101a55750600154825111155b6101e95760405162461bcd60e51b815260206004820152601560248201527424b73b30b634b2103634b9ba103932b1b2b4bb32b960591b6044820152606401610110565b60005b82518110156102e657600082828151811061021757634e487b7160e01b600052603260045260246000fd5b60200260200101511161026c5760405162461bcd60e51b815260206004820152601d60248201527f416d6f756e74206d7573742062652067726561746572207468616e20300000006044820152606401610110565b60025483516102d4916001600160a01b03169085908490811061029f57634e487b7160e01b600052603260045260246000fd5b60200260200101518484815181106102c757634e487b7160e01b600052603260045260246000fd5b6020026020010151610572565b806102de816109d0565b9150506101ec565b507fc8d45da251e1ba51b074ab8118b661281efe0d96fc60f0a97fc9644f62d9546e82826040516103189291906108db565b60405180910390a15050565b6000546001600160a01b0316331461034e5760405162461bcd60e51b815260040161011090610946565b6001600160a01b0381166103b35760405162461bcd60e51b815260206004820152602660248201527f4f776e61626c653a206e6577206f776e657220697320746865207a65726f206160448201526564647265737360d01b6064820152608401610110565b6103bc81610522565b50565b6000546001600160a01b031633146103e95760405162461bcd60e51b815260040161011090610946565b600082511180156103fd5750600154825111155b6104415760405162461bcd60e51b815260206004820152601560248201527424b73b30b634b2103634b9ba103932b1b2b4bb32b960591b6044820152606401610110565b600081116104915760405162461bcd60e51b815260206004820152601d60248201527f416d6f756e74206d7573742062652067726561746572207468616e20300000006044820152606401610110565b60005b82518110156104f05760025483516104de916001600160a01b0316908590849081106104d057634e487b7160e01b600052603260045260246000fd5b602002602001015184610572565b806104e8816109d0565b915050610494565b507feeb9052f86d5d21d099b20a1a39748440e720a832b3b99482afa7152fa6bd9068282604051610318929190610924565b600080546001600160a01b038381166001600160a01b0319831681178455604051919092169283917f8be0079c531659141344cd1fd0a4f28419497f9722a3daafe3b4186f6b6457e09190a35050565b604080516001600160a01b038481166024830152604480830185905283518084039091018152606490920183526020820180516001600160e01b031663a9059cbb60e01b17905291516000928392908716916105ce91906108a2565b6000604051808303816000865af19150503d806000811461060b576040519150601f19603f3d011682016040523d82523d6000602084013e610610565b606091505b509150915081801561063a57508051158061063a57508080602001905181019061063a919061083f565b6106865760405162461bcd60e51b815260206004820152601f60248201527f5472616e7366657248656c7065723a205452414e534645525f4641494c4544006044820152606401610110565b5050505050565b80356001600160a01b03811681146106a457600080fd5b919050565b600082601f8301126106b9578081fd5b813560206106ce6106c9836109ac565b61097b565b80838252828201915082860187848660051b89010111156106ed578586fd5b855b85811015610712576107008261068d565b845292840192908401906001016106ef565b5090979650505050505050565b600060208284031215610730578081fd5b6107398261068d565b9392505050565b60008060408385031215610752578081fd5b823567ffffffffffffffff80821115610769578283fd5b610775868387016106a9565b935060209150818501358181111561078b578384fd5b85019050601f8101861361079d578283fd5b80356107ab6106c9826109ac565b80828252848201915084840189868560051b87010111156107ca578687fd5b8694505b838510156107ec5780358352600194909401939185019185016107ce565b5080955050505050509250929050565b6000806040838503121561080e578182fd5b823567ffffffffffffffff811115610824578283fd5b610830858286016106a9565b95602094909401359450505050565b600060208284031215610850578081fd5b81518015158114610739578182fd5b6000815180845260208085019450808401835b838110156108975781516001600160a01b031687529582019590820190600101610872565b509495945050505050565b60008251815b818110156108c257602081860181015185830152016108a8565b818111156108d05782828501525b509190910192915050565b6040815260006108ee604083018561085f565b828103602084810191909152845180835285820192820190845b8181101561071257845183529383019391830191600101610908565b604081526000610937604083018561085f565b90508260208301529392505050565b6020808252818101527f4f776e61626c653a2063616c6c6572206973206e6f7420746865206f776e6572604082015260600190565b604051601f8201601f1916810167ffffffffffffffff811182821017156109a4576109a46109f7565b604052919050565b600067ffffffffffffffff8211156109c6576109c66109f7565b5060051b60200190565b60006000198214156109f057634e487b7160e01b81526011600452602481fd5b5060010190565b634e487b7160e01b600052604160045260246000fdfea2646970667358221220a30d5d9b415a4af0988f19a05c88987c7a1b9c0376a96fdc3dcb9cb1c3bb2caf64736f6c63430008040033",
  "linkReferences": {},
  "deployedLinkReferences": {}
}