{
  "_format": "hh-sol-artifact-1",
  "contractName": "Marketing",
  "sourceName": "contracts/Marketing.sol",
  "abi": [
    {
      "inputs": [
        {
          "internalType": "address",
          "name": "owner",
          "type": "address"
        },
        {
          "internalType": "address",
          "name": "_token",
          "type": "address"
        }
      ],
      "stateMutability": "nonpayable",
      "type": "constructor"
    },
    {
      "anonymous": false,
      "inputs": [
        {
          "indexed": true,
          "internalType": "address",
          "name": "previousOwner",
          "type": "address"
        },
        {
          "indexed": true,
          "internalType": "address",
          "name": "newOwner",
          "type": "address"
        }
      ],
      "name": "OwnershipTransferred",
      "type": "event"
    },
    {
      "anonymous": false,
      "inputs": [
        {
          "indexed": false,
          "internalType": "address[]",
          "name": "listReceiver",
          "type": "address[]"
        },
        {
          "indexed": false,
          "internalType": "uint256[]",
          "name": "tokenAmount",
          "type": "uint256[]"
        }
      ],
      "name": "SendBatch",
      "type": "event"
    },
    {
      "inputs": [],
      "name": "claimToken",
      "outputs": [],
      "stateMutability": "nonpayable",
      "type": "function"
    },
    {
      "inputs": [],
      "name": "owner",
      "outputs": [
        {
          "internalType": "address",
          "name": "",
          "type": "address"
        }
      ],
      "stateMutability": "view",
      "type": "function"
    },
    {
      "inputs": [],
      "name": "renounceOwnership",
      "outputs": [],
      "stateMutability": "nonpayable",
      "type": "function"
    },
    {
      "inputs": [
        {
          "internalType": "address[]",
          "name": "listReceiver",
          "type": "address[]"
        },
        {
          "internalType": "uint256[]",
          "name": "tokenAmounts",
          "type": "uint256[]"
        }
      ],
      "name": "sendBatch",
      "outputs": [],
      "stateMutability": "nonpayable",
      "type": "function"
    },
    {
      "inputs": [
        {
          "internalType": "contract ITreasury",
          "name": "_treasury",
          "type": "address"
        }
      ],
      "name": "setTreasury",
      "outputs": [],
      "stateMutability": "nonpayable",
      "type": "function"
    },
    {
      "inputs": [],
      "name": "token",
      "outputs": [
        {
          "internalType": "address",
          "name": "",
          "type": "address"
        }
      ],
      "stateMutability": "view",
      "type": "function"
    },
    {
      "inputs": [
        {
          "internalType": "address",
          "name": "newOwner",
          "type": "address"
        }
      ],
      "name": "transferOwnership",
      "outputs": [],
      "stateMutability": "nonpayable",
      "type": "function"
    },
    {
      "inputs": [],
      "name": "treasury",
      "outputs": [
        {
          "internalType": "contract ITreasury",
          "name": "",
          "type": "address"
        }
      ],
      "stateMutability": "view",
      "type": "function"
    }
  ],
  "bytecode": "0x6080604052606460015534801561001557600080fd5b50604051610b89380380610b89833981016040819052610034916101a4565b61003d33610068565b600280546001600160a01b0319166001600160a01b038316179055610061826100b8565b50506101d6565b600080546001600160a01b038381166001600160a01b0319831681178455604051919092169283917f8be0079c531659141344cd1fd0a4f28419497f9722a3daafe3b4186f6b6457e09190a35050565b6000546001600160a01b031633146101175760405162461bcd60e51b815260206004820181905260248201527f4f776e61626c653a2063616c6c6572206973206e6f7420746865206f776e657260448201526064015b60405180910390fd5b6001600160a01b03811661017c5760405162461bcd60e51b815260206004820152602660248201527f4f776e61626c653a206e6577206f776e657220697320746865207a65726f206160448201526564647265737360d01b606482015260840161010e565b61018581610068565b50565b80516001600160a01b038116811461019f57600080fd5b919050565b600080604083850312156101b6578182fd5b6101bf83610188565b91506101cd60208401610188565b90509250929050565b6109a4806101e56000396000f3fe608060405234801561001057600080fd5b50600436106100885760003560e01c80638da5cb5b1161005b5780638da5cb5b146100e1578063f0f44260146100f2578063f2fde38b14610105578063fc0c546a1461011857600080fd5b80634451d89f1461008d57806361d027b314610097578063715018a6146100c65780638535d2ec146100ce575b600080fd5b61009561012b565b005b6003546100aa906001600160a01b031681565b6040516001600160a01b03909116815260200160405180910390f35b6100956101e7565b6100956100dc366004610700565b61021d565b6000546001600160a01b03166100aa565b6100956101003660046106dd565b61041c565b6100956101133660046106dd565b610468565b6002546100aa906001600160a01b031681565b6003546001600160a01b031661017d5760405162461bcd60e51b815260206004820152601260248201527114d95d081d1c99585cdd5c9e48199a5c9cdd60721b60448201526064015b60405180910390fd5b600360009054906101000a90046001600160a01b03166001600160a01b0316634e71d92d6040518163ffffffff1660e01b8152600401600060405180830381600087803b1580156101cd57600080fd5b505af11580156101e1573d6000803e3d6000fd5b50505050565b6000546001600160a01b031633146102115760405162461bcd60e51b815260040161017490610892565b61021b6000610503565b565b6000546001600160a01b031633146102475760405162461bcd60e51b815260040161017490610892565b80518251146102895760405162461bcd60e51b815260206004820152600e60248201526d092dcecc2d8d2c840d8cadccee8d60931b6044820152606401610174565b6000825111801561029d5750600154825111155b6102e15760405162461bcd60e51b815260206004820152601560248201527424b73b30b634b2103634b9ba103932b1b2b4bb32b960591b6044820152606401610174565b60005b82518110156103de57600082828151811061030f57634e487b7160e01b600052603260045260246000fd5b6020026020010151116103645760405162461bcd60e51b815260206004820152601d60248201527f416d6f756e74206d7573742062652067726561746572207468616e20300000006044820152606401610174565b60025483516103cc916001600160a01b03169085908490811061039757634e487b7160e01b600052603260045260246000fd5b60200260200101518484815181106103bf57634e487b7160e01b600052603260045260246000fd5b6020026020010151610553565b806103d68161091c565b9150506102e4565b507fc5265908c67a08018b6604033f7b01b846c0e10c9594a5ec080a1071b3f2ff79828260405161041092919061081c565b60405180910390a15050565b6000546001600160a01b031633146104465760405162461bcd60e51b815260040161017490610892565b600380546001600160a01b0319166001600160a01b0392909216919091179055565b6000546001600160a01b031633146104925760405162461bcd60e51b815260040161017490610892565b6001600160a01b0381166104f75760405162461bcd60e51b815260206004820152602660248201527f4f776e61626c653a206e6577206f776e657220697320746865207a65726f206160448201526564647265737360d01b6064820152608401610174565b61050081610503565b50565b600080546001600160a01b038381166001600160a01b0319831681178455604051919092169283917f8be0079c531659141344cd1fd0a4f28419497f9722a3daafe3b4186f6b6457e09190a35050565b604080516001600160a01b038481166024830152604480830185905283518084039091018152606490920183526020820180516001600160e01b031663a9059cbb60e01b17905291516000928392908716916105af91906107e3565b6000604051808303816000865af19150503d80600081146105ec576040519150601f19603f3d011682016040523d82523d6000602084013e6105f1565b606091505b509150915081801561061b57508051158061061b57508080602001905181019061061b91906107c3565b6106675760405162461bcd60e51b815260206004820152601f60248201527f5472616e7366657248656c7065723a205452414e534645525f4641494c4544006044820152606401610174565b5050505050565b600082601f83011261067e578081fd5b8135602061069361068e836108f8565b6108c7565b80838252828201915082860187848660051b89010111156106b2578586fd5b855b858110156106d0578135845292840192908401906001016106b4565b5090979650505050505050565b6000602082840312156106ee578081fd5b81356106f981610959565b9392505050565b60008060408385031215610712578081fd5b823567ffffffffffffffff80821115610729578283fd5b818501915085601f83011261073c578283fd5b8135602061074c61068e836108f8565b8083825282820191508286018a848660051b890101111561076b578788fd5b8796505b8487101561079657803561078281610959565b83526001969096019591830191830161076f565b50965050860135925050808211156107ac578283fd5b506107b98582860161066e565b9150509250929050565b6000602082840312156107d4578081fd5b815180151581146106f9578182fd5b60008251815b8181101561080357602081860181015185830152016107e9565b818111156108115782828501525b509190910192915050565b604080825283519082018190526000906020906060840190828701845b8281101561085e5781516001600160a01b031684529284019290840190600101610839565b50505083810382850152845180825285830191830190845b818110156106d057835183529284019291840191600101610876565b6020808252818101527f4f776e61626c653a2063616c6c6572206973206e6f7420746865206f776e6572604082015260600190565b604051601f8201601f1916810167ffffffffffffffff811182821017156108f0576108f0610943565b604052919050565b600067ffffffffffffffff82111561091257610912610943565b5060051b60200190565b600060001982141561093c57634e487b7160e01b81526011600452602481fd5b5060010190565b634e487b7160e01b600052604160045260246000fd5b6001600160a01b038116811461050057600080fdfea2646970667358221220a340a0244cacff3a1e7987f180b2b2abf1a915dfbf4bdf0b0791ac633f1d99b464736f6c63430008040033",
  "linkReferences": {},
  "deployedLinkReferences": {}
}